:100000004029002085450000814500008145000011
:1000100000000000000000000000000000000000E0
:10002000000000000000000000000000814500000A
:100030000000000000000000814500008145000034
:100040008145000081450000814500004904000011
:10005000F51D00008145000081450000A93D00001C
:100060008145000081450000814500008145000078
:100070008145000081450000814500008145000068
:1000800081450000814500002503000081450000F6
:100090008145000081450000814500008145000048
:1000A0008145000081450000814500008145000038
:1000B0000000000010B5064C2378002B07D1054B3B
:1000C000002B02D0044800E000BF0123237010BDC4
:1000D00074010020000000004C700000084B10B5B7
:1000E000002B03D00749084800E000BF0748036819
:1000F000002B00D110BD064B002BFBD09847F9E731
:1001000000000000780100204C7000004C700000DE
:10011000000000008022D205024B5A612022024BCF
:100120001A60704780440041184400418022D20583
:10013000024B9A612022024B1A60704780440041B2
:10014000144400418022D205024B5A612022024B06
:100150001A60704780440041184400418022D20553
:10016000024B9A612022024B1A6070478044004182
:10017000144400413038C3B2092B16D898000B4BF9
:100180001B589F46022010E004200EE005200CE0E2
:1001900006200AE0072008E0082006E0092004E025
:1001A000002002E0012000E003207047206D0000E5
:1001B000F0B5C64600B5524B9847524F48233B70A6
:1001C0003A001B210020504EB0473A001C2100206D
:1001D000B0474D233B703A001E210020B0473A0043
:1001E0001F210020B047494FB847FF28FCD0454F9A
:1001F00019E0464B9847434B1870454B984705000C
:10020000404A1B210020404B98470022414B1A8254
:1002100064211A0010209073937BDB06FCD5013912
:1002200089B20029F7D13B78303B022BE1D8FF227D
:10023000344B1A70354FB847FF28FCD0314F19E0C6
:10024000324B98472F4B1870314B984780462D4AB8
:100250001C2100202C4B984700222E4B1A8264212F
:100260001A0010209073937BDB06FCD5013989B20C
:100270000029F7D13B78303B032BE1D8AB00ED18D8
:100280006D004544244B1D70FF221E4B1A701F4DFC
:10029000A847FF28FCD01B4D19E01C4B9847194B71
:1002A00018701B4B98470400164A1E210020164B5D
:1002B00098470022174B1A8264211A00102090736D
:1002C000937BDB06FCD5013989B20029F7D12B7865
:1002D000303B052BE1D8FF220A4B1A700B4DA84783
:1002E000FF28FCD00022074B1A70A300E41864001A
:1002F0000A4B1C700A4B984704BC9046F0BDC046A0
:10030000B910000055040020F90F00006D0E000028
:100310007501000000300042540400201E0400203B
:100320005D0F0000F8B5344B9B7BDB0611D4324BDC
:100330009B7BDB070CD5314A13780133DBB213709A
:100340000A2B1ED02E4B98472E4B1870662824D0AF
:10035000F8BD2D4B18781A2200212C4CA0472C4BAD
:10036000187824220021A0472A4D28002A4B9847BC
:10037000A87807220021A04768780A220021A04718
:10038000D5E7264B9847204B1860254B9847204BC4
:1003900018700022194B1A70D4E7194B9847194A64
:1003A0001070312822D03228D2D106211D481E4C8F
:1003B000A047154B1A681D4F1D4D390028001D4ED2
:1003C000B04702212800A04703211B48A047042171
:1003D0001A48A0470E4B1A7839002800B04702216E
:1003E0002800A04703211648A047B1E70E21154871
:1003F0000D4B9847ACE7C046002C0042100300208C
:10040000611500001C040020500400205D11000054
:10041000680500201004002051120000D54A000099
:10042000754B0000586D000081150000606D0000E4
:10043000AC040020F1640000646D0000686D0000F1
:10044000706D0000486D000010B5104C2378104A04
:100450009B00D0189B58984720780130C3B2237076
:100460005800C01880000B4BC0180B4B98472378DE
:10047000042B03D00122094B1A7210BD0022034B3A
:100480001A700448044B9847F4E7C0461D04002046
:100490009001002020040020C11200000014004040
:1004A00010B50D4B08229A70002159700B4A0C4868
:1004B00010600A20987359730A4850600D2098768E
:1004C000597609489060102426201C54013819548C
:1004D000064BD36010BDC0462004002090010020D0
:1004E000150100002D010000450100005D01000024
:1004F000F0B5D6464F464646C0B5594B9847594B7E
:100500009847594B9847594C594B1B78A370594BF6
:100510001B7863702000584B9847584B9847FF2230
:10052000574B1A70A078431CDBB2182B29D8554AB8
:100530009578977B967E2621515C00229446FF3267
:100540000224A2460134A1460024A0460AE001226A
:1005500002E0524600E042460124A4460133DBB2E9
:10056000192B0BD09D42F6D0FF2AF7D1BB42EED01B
:10057000B342EED09942F1D14A46EDE76346002BF3
:1005800010D1404B9A783E4909789C7B9D7E262667
:100590009F5D00239C46243EB2460136B1460026AC
:1005A000B0460FE0364B1A70FF2A1AD1E9E7012155
:1005B00002E0514600E041460126B4460133DBB279
:1005C00098420BD39A42F6D0FF29F7D19C42EED045
:1005D000AB42EED09F42F1D14946EDE76346002B96
:1005E0003BD1274B1B785800C0188000254BC01802
:1005F000254B9847254A116A80231B010B43136240
:10060000234A244B5A80244BA92252011A800022EB
:100610001A82224A1A835A7B10210A435A735A7B40
:1006200001210A435A731A8802210A431A801C4B7B
:100630008021C902C02252009950C42080001A585B
:10064000184C22401A501960174B9847174B98477F
:100650001CBC90469946A246F0BD094B1970C0E7F4
:10066000DD0D0000B1010000A11100001004002008
:10067000540400201E040020A1120000A104000068
:100680001D04002020040020C112000000040040CE
:100690001B420000000C0040002C00424D080000EE
:1006A00000E100E0FFFF00FFF51000002D11000049
:1006B000024A1378013BDBB213707047AB01002094
:1006C00000207047002070477047000010B50022DE
:1006D000104B1A700021104B1A80104BA12018707B
:1006E000813858705A809A801E38D8801A810C4BF5
:1006F000E12252021A601971597108229A71002080
:10070000084B9847002804D0024A13780133DBB223
:10071000137010BDAB01002040020020D802002061
:10072000A40100206948000070B584B0464B1B78D6
:10073000002B01D004B070BD444B9847002843D033
:10074000434B1C88434B98478442F3D0EFF310830C
:100750005A425341039372B6BFF35F8F00223E4B60
:100760001A70039D3D4B1C78E4B262003C4BD35A97
:10077000002B30D000223B4B1A803B4B1B78002BC8
:1007800048D163426341DBB2344A137001222E4BDD
:100790001A70002D04D0304B1A70BFF35F8F62B611
:1007A000260063002E4A9B5A1D00403D6A1E95415B
:1007B000EDB2402B37D0254B984700282ED0254B43
:1007C0009847234B188031E0214B1C88274B9847D2
:1007D0008442BBD1AEE7234A1388013313801B4BFD
:1007E0009847002803D11F4B1B88632B08D9174B50
:1007F00098470028BED01E4B1A4A12889A42B9D890
:10080000002D00D196E70122134B1A70BFF35F8FC2
:1008100062B68FE762425441E4B2B7E7134B9847A0
:100820000B4B188002E00022094B1A8076000C4B1B
:10083000F35AA4010F4A14190F4A0092220029000A
:1008400081200E4CA04775E7D4020020293000001B
:10085000D00200203D3000000C010020CC0200201E
:10086000C8020020A0010020440200202D3000001A
:100870001F030000480200208108000035330000FB
:1008800010B5002800D010BD074B1B785A425341C9
:100890005B00002205495852054B1A70054B1A702F
:1008A000054B9847EFE7C046CC020020C802002065
:1008B00044020020D40200202907000010B50020C7
:1008C000014B984710BDC0462907000010B5064AE5
:1008D0001378013BDBB213701078C0B2034B98471A
:1008E0000022034B1A7010BDAC01002079480000B3
:1008F000A201002010B5204B1A7853B2002B05DB63
:10090000602313400020202B14D010BD602313401F
:100910000020202BF9D1184B5B78212B29D1164BC5
:10092000DB88072BF1D1144B144A9A6007229A8175
:100930000130EAE7104B5B78202B03D0222B0FD03D
:100940000020E2E70C4BDB880020072BDDD10A4BAF
:100950000B4A1A61094A9A6007229A810130D4E74A
:10096000054B5B88012119400020064B9847012068
:10097000CBE70020C9E7C046E0070020A401002023
:10098000C90600008548000082B0EFF310835A4288
:100990005341019372B6BFF35F8F00220A4B1A7066
:1009A000019A0A4B19880A4B1B785B000948185AB0
:1009B000401A002A05D00122034B1A70BFF35F8F43
:1009C00062B602B07047C0460C0100203802002019
:1009D000340200203002002010B5034B9847431E1C
:1009E0009841C0B210BDC0468909000010B584B05E
:1009F000EFF310835A425341039372B6BFF35F8FF4
:100A000000221F4B1A70039B1E4A1478E4B21E4A40
:100A10001278002A07D11D4A128861001C48095A21
:100A200092B28A420AD20020002B05D00122144B38
:100A30001A70BFF35F8F62B604B010BD0021134A75
:100A4000118062426241D2B20E490A7001210E4AFF
:100A50001170002B05D00122094B1A70BFF35F8F74
:100A600062B600200B4B9847A4010B4A12190B4B9E
:100A70000093402301210220094CA047DCE7C04637
:100A80000C010020340200203C020020380200202B
:100A900030020020D9090000B0010020350B000011
:100AA0003533000070B50024154B1C70154B1C70BD
:100AB000154B1C70154B1C70154B00251C805C8061
:100AC000144B1C800020144B9847144B1D70144B82
:100AD0001D70144B1C805C80134B1C800020134B3A
:100AE0009847002807D0064A13780133DBB2137009
:100AF0001378012B00D070BD01220D4B1A70FAE75C
:100B0000AC010020D402002044020020CC020020CE
:100B1000C8020020D0020020290700003C0200206B
:100B2000340200203002002038020020ED090000CD
:100B3000A201002010B582B01400002810D10F4B84
:100B40001A7853425A41D2B200290BD089B25200CE
:100B50000B4BD15200220B4B1A7000200A4B9847C6
:100B600002B010BD9201094B9A18094B0093402323
:100B700001312000074CA047F2E7C04634020020B4
:100B8000300200203C020020ED090000B0010020EE
:100B9000350B00003533000010B50020014B98479D
:100BA00010BDC046D9090000F0B5D6464F464646AE
:100BB000C0B582B0274B9B79093B5A425341DBB207
:100BC000994600239C46244B98460027234E244CEC
:100BD00005E08B4229D3234B1B78002B1DD0EFF36C
:100BE00010835A425341019372B6BFF35F8F43465D
:100BF0001F70019833889BB22278D2B255001A49EF
:100C0000695A89B20028E4D001208246124855462C
:100C10000570BFF35F8F62B6DBE70025280002B0E6
:100C20001CBC90469946A246F0BD92010F498A1815
:100C3000D25C6546154301339BB2084A13800020FD
:100C40000B4B98474B46002BE8D02B029C460023C9
:100C50009946C4E7A40100200C01002038020020BE
:100C600034020020A201002030020020B001002048
:100C7000ED09000010B50020014B984710BDC0469B
:100C8000A90B000082B0EFF310835A425341019345
:100C900072B6BFF35F8F0022144B1A700199144B88
:100CA0001B78DBB25800134A825A402A0BD04020EE
:100CB000801A002905D001220C4B1A70BFF35F8FF8
:100CC00062B602B070470C4800780028EFD10B489C
:100CD00000780028EBD10130084A10705A42534185
:100CE000DBB2034A13700022E1E7C0460C0100208A
:100CF000CC020020C8020020D402002044020020C0
:100D000010B5034B9847431E9841C0B210BDC04672
:100D1000850C0000F0B5DE4657464E464546E0B528
:100D200083B00C00224B9D79093D6B425D41EDB2D1
:100D3000204E214B9846214B9A4627E0EFF3108333
:100D40005A425341019372B6BFF35F8F002342466C
:100D50001370019B9B4653461B78DBB2184A94469E
:100D60005F00B95A4A1C60463A529B01154AD31893
:100D70005C545B46002B05D001220F4B1A70BFF369
:100D80005F8F62B6002D10D0241200250020B047DE
:100D90000028D3D10C4B1B78002BF7D103B03CBCFF
:100DA00090469946A246AB46F0BD0120F6E7C04604
:100DB000A4010020010D00000C010020CC02002045
:100DC000C802002048020020A201002010B5010046
:100DD0000020014B984710BD150D0000F0B51E4ACC
:100DE000202111601D4B196018391160196078318C
:100DF000116019607E3911601960194910260E6062
:100E0000184BC422985C0224204398549D5C04270C
:100E1000042005439D54144A16600F60C2255E5D90
:100E200026435E555E5D06435E5517603C370F6096
:100E300004355E5D26435E555E5D06435E55176074
:100E400001260E60C0215D5C2C435C545C5C204339
:100E500058541660F0BDC046884400419444004197
:100E60008444004100440041A44400410822374B1F
:100E70001A60374B1A681023D20600D50C3B344A4F
:100E80001268520700D50523314A1268520600D570
:100E900006232F4A1268D20700D5072308212D4ABE
:100EA00011607831294A1160294A1268D20600D5AA
:100EB0000823274A1268520700D50923244A1268DA
:100EC000520600D50A23224A1268D20700D50B2306
:100ED0008021204A11607E391C4A11601C4A126828
:100EE000D20600D50C231A4A1268520700D50D23EA
:100EF000174A1268520600D50E23154A1268D20707
:100F000000D50F230221134A11601E310F4A1160D0
:100F10000F4A116810220A4051424A41524213407E
:100F20000B4A1268520700D50123094A126852067B
:100F300000D50223064A1268D20700D503232021D8
:100F4000044A1160044AD05C7047C046984400418E
:100F5000A0440041944400412800002010B5022321
:100F6000214A1370214A5362110001220B7E134261
:100F7000FCD01E4B5B8B5B0721D4022128231B4A2C
:100F8000D154110001220B7E1342FCD0174B5B8B16
:100F90005B071ED4154A5168C0239B020B43536064
:100FA0000022134B1A8203211A0010209073937BA6
:100FB000DB06FCD5013989B20029F7D110BD0B4AF7
:100FC0005168C0239B020B4353604120094B984753
:100FD000E6E7064A5168C0239B020B435360422058
:100FE000044B9847DCE7C046E402002000100042B2
:100FF00000300042CD0D0000F8B52B4B04241C70CE
:10100000597098701178002938D00023264C01338C
:10101000E0188170D15C0029F9D10221234A516284
:1010200010000139027E0A42FCD0204A528B52073E
:1010300026D4D91C0A00002400290FDD1A4F1B49B1
:10104000282601200425E35D8B550B7E0342FCD04E
:101050004B8B2B421ED10134A242F4D1134A51686A
:10106000C0239B020B435360114B00221A821032A3
:101070009A731A00937BDB06FCD5F8BD0023CCE7FE
:101080000A4A5168C0239B020B4353604120094B1D
:101090009847E9E7054A5168C0239B020B43536018
:1010A0004220044B9847DFE7E40200200010004292
:1010B00000300042CD0D000010B50C4A45231370DE
:1010C00029335370063393700F3BD3707221117123
:1010D00052395171343191711531D171043111721C
:1010E000537268390020024B984710BD5C04002001
:1010F000F90F000010B50B4A5423137011335370CD
:10110000083393700333D370363B13711A3B53711A
:101110009371D37113722333537214210020024B45
:10112000984710BDAC040020F90F000010B5094A23
:10113000522313700A3B53700E3B93701A3BD370CB
:10114000137153710533937120210020024B98478E
:1011500010BDC046D4040020F90F0000F0B583B0E4
:101160000700019116000A4C0A210A4B98470A4DC4
:101170000A21A847303121700A213800A8473031B0
:101180006170220031000198044B984703B0F0BD14
:1011900084040020F94C0000C54E0000F90F000047
:1011A000124A936920210B439361114A114B5A80D3
:1011B000114B183919805A888020C00102435A8087
:1011C0000122DA711A88082002431A801A88063828
:1011D00002431A80094AC0235B00D150C02080001E
:1011E00013581B021B0A1350116070470004004083
:1011F00004440000000C00400014004000E100E046
:10120000C2880389D21A920643799B050179490461
:101210000B4301780B43817809030B43407880012D
:10122000184310437047830E0A899B18CB808301B3
:101230001B0F4B71420C1F231A400A71020B134003
:101240008B7082093F231A404A701840087070471B
:1012500010B50100C37A002B0CD10E4A0E4B5A80F8
:101260001A00937A5BB2002BFBDB0B4B18690B4B1C
:10127000984710BD084B5B885B04F6D4064A538838
:10128000C020000203435380937A5BB2002BFBDB48
:10129000EBE7C0460080FFFF00140040271200006B
:1012A00010B5054B9847054A937A5BB2002BFBDBE0
:1012B000024B186110BDC04601120000001400402E
:1012C00010B5084A937A5BB2002BFBDB064B9847BC
:1012D000044A937A5BB2002BFBDB024B986103223A
:1012E0001A7710BD001400400112000070B5564B73
:1012F0009847002809D1554B1B78503BDAB2272A72
:1013000010D89300524AD3589F46524B98474F4BA0
:101310001870F0E7504B9847504B18600078303009
:101320004F4B98470022494B1A7070BD4D4B984760
:101330004D4B18601A2200214C4B9847F2E74C4B5A
:1013400098474C4B186024220021484B9847E9E706
:10135000494E4A4D4A4C40223100FA204002A847EB
:1013600020700528F7D0444C260040363C4D2078AC
:101370003030A8470134A642F9D1D3E700233E4AD2
:10138000D3540133402BFBD1FA2676023D4D3C4C21
:101390003000A84720700528FAD0374E3A4D384C17
:1013A00040223100FA204002A84720700528F7D0DB
:1013B000B8E7FA267602334D314C3000A84720704A
:1013C0000528FAD0AEE780221205304B1A60A9E753
:1013D0002F4C20002F4B9847A07804220021234D4A
:1013E000A847607807220021A84720780A22002118
:1013F000A847E378002B09D0274A412313700C3308
:1014000053700E210020254B98478BE7224A50232A
:101410001370033B53700E210020204B984781E747
:101420000D211F481F4B98471F4B1B78662B05D07B
:101430001E4D1D4CA84720706628FBD11A4A0E216C
:101440000020164B98476DE7990B00000C03002015
:10145000746D0000750C0000A1480000000500201C
:10146000CD0D0000D54A0000500400205D110000A1
:10147000754B0000680500201005002029210000A0
:1014800064050020952100008120000018440041DF
:10149000580500205112000058040020F90F0000E8
:1014A0003C0000208115000050050020611500005F
:1014B00070B5020CD4B21F2121405209D3B2DB0116
:1014C0000D4A944663445A18403215780126354334
:1014D000157049085B1830331978012222409200B8
:1014E0000F249440A143197019780004000C904017
:1014F0000843C0B2187070BD0044004110B50F48D9
:101500000F4CA0470F48A0470F4A136A40210B43D6
:1015100013620E4A0E4B5A80C02292020D4B5A6043
:101520001A00D3695B07FCD40A4B0B4A9A810B4A19
:101530001A601A00D3699B07FCD410BD0300280071
:10154000B11400000300290000040040184200000C
:10155000000C00400018004216FBFFFF0600104080
:10156000064B1B7E00205B0706D5044AD369002B7F
:10157000FCD1024B188DC0B27047C0460018004223
:10158000F0B5194AD369002BFCD107004118164A5F
:101590000125022608E03878D369002BFCD110859C
:1015A000137E3342FCD001378F420CD0137E2B4286
:1015B000F1D10E4B147E2C42EDD1012B12D0013B08
:1015C000002BF7D1E7E7084B1B7E9B070AD4074B9C
:1015D00005480221027E0A4204D1012B02D0013BC0
:1015E000002BF7D1F0BDC04600180042FFFF0000FD
:1015F0008022D205014B9A617047C0468044004169
:1016000010B500210F20014B984710BDB51D0000FB
:1016100010B500210F20014B984710BDD51D0000CB
:101620008022D205014B5A617047C0468044004178
:101630007047704710B5FA218900094B984789B265
:10164000002904D18022D205064B5A6110BDFA232D
:101650005B009942FAD18022D205024B9A61F5E7EC
:10166000F14C00008044004110B5114B1B681A6812
:101670009478D3781B022343D2180378C018904281
:1016800010D24378042B0FD08B420AD00378C018B5
:10169000904205D24378042B08D08B42F6D100E06B
:1016A000002010BD0020FCE70020FAE70020F8E74A
:1016B0002003002010B5034B5B887F201840024BAD
:1016C000984710BDE00700200D35000070B5194B9C
:1016D0001B780022002B29D0174B1B681B681C7934
:1016E000844223D9154A13609A78DC782402144383
:1016F0001C19A3421CD20025012607E00F4A1360E3
:101700000FE01A789B183500A3420CD25A78042AAD
:10171000F7D19A788242F4D1DA788A42F1D1002D59
:10172000ECD1012202E0054A13600022100070BDD6
:101730000022FBE71C0300202003002024030020DC
:10174000F0B5C64600B504000021134B9847051EAE
:1017500003D1280004BC9046F0BD104B1B685B68A9
:10176000A200D3589846DB689847010020000A4B36
:101770009847051EEDD00A4B1C680A4E0A4F0521FA
:101780002000B047041E02D08078B847F7E74346F0
:101790005B689847DDE7C046CD16000020030020B7
:1017A00024030020691600004D300000F8B5050044
:1017B0000F4B9847002819D00E4B1C680E4E0F4F48
:1017C00005212000B047041E09D003794279120296
:1017D0001A43C1788078B8470028F1D106E0084B59
:1017E0001B685B68AD00EB581B689847F8BDC046A6
:1017F000CD1600002403002069160000A53000006B
:101800002003002010B5014B984710BD1936000089
:1018100070B50E4B1B78002B11D00D4B1B681B684D
:101820001B79002B0BD000240A4E094D2000B04735
:101830000134E4B22B681B681B79A342F6D800225E
:10184000024B1A700132044B1A8070BD1C03002039
:1018500020030020411700001403002070B50E4B38
:101860001B78002B17D00D4B1B681A681279002AC1
:1018700011D00024094D06E00134E4B22B681A6847
:101880001279A24207D95B68A200D3581B69002BCA
:10189000F2D09847F0E770BD1C0300202003002021
:1018A000F8B5AA4B00229A811A615A611B785AB284
:1018B000002A13DB60221A4200D1D6E0A34B1A782B
:1018C0001F231340012B00D172E1A04B1A781F2374
:1018D00013400020022B00D1C8E1F8BD9B4AD288FA
:1018E0000020002AF9D060211942E7D11F210B40C6
:1018F00008D196494978062923D0082900D183E0E8
:10190000002917D0012B00D186E0022BD6D18F4BB6
:101910005B780020002B00D0A4E1022AD5D18B4BAC
:1019200018798B4B98478B4B1880022118008A4BF3
:101930009847FBE0022AC8D102318848864B984775
:10194000F4E0824B5A88130A022B23D0D9B2022921
:101950000FD9032B34D00F2B00D080E1804B986837
:101960000028B2D08378C178090219437A4B98478E
:1019700007E0012B00D072E1794B18680178764BB3
:101980009847724BDA889B89934200D8CEE06F4B20
:101990009A81CBE0D2B2724B1B685B7C934200D839
:1019A00093E76F4B5B68D200D0588378C178090207
:1019B0001943694B9847654B9B6802225A70E0E7D0
:1019C000FF231A40012A1CD0002A15D0022A00D079
:1019D00074E7644C0F21644A0023E05C50800133BB
:1019E0000232D8B28842F8D3490002315E48017011
:1019F00089B2594B9847C4E704215C48564B984735
:101A0000BFE75B4C0921E6E7012A00D05DE7012131
:101A10005848514B984789E04C4949780A2900D0E9
:101A200073E7012A00D0C3E0524B1B78002B00D192
:101A3000BEE0464B1C79504B1D682B681B79A342B6
:101A400000D8B5E0002120004C4B9847002800D179
:101A500034E76B68A400E358DB689847484B18707C
:101A6000012118003C4B984760E01F2213405FD1D2
:101A7000364A5278032A00D1F3E0D1B203293BD988
:101A8000052A4BD0092A53D1304BDB88002B00D0DC
:101A90001BE73C4B9847002800D10FE72B4B9A7867
:101AA0002F4B1B685B7C9A4200DD07E7364B98475B
:101AB000264B9B782F4A1370002B37D0334A94461D
:101AC0006344DB00264A5268D3182B4A13601B6814
:101AD0001B79002B2AD000242D4D16000021200058
:101AE000A847002800D1E9E60134E4B233681B6856
:101AF0001B79A342F2D819E0012A19D1134BDB88D4
:101B0000002B00D0E1E6114B5B88012B00D0DCE616
:101B1000124A138802218B43138007E00B4BDB88AA
:101B2000002B00D0D1E61B4A084B1A610120D4E6F5
:101B3000012B31D0022B00D0C0E6044B5B78012B87
:101B40006CD0032B00D178E000208BE0E007002070
:101B5000AD310000160300202D35000014030020D5
:101B60004C000020FC000020CC000020EC000020F5
:101B7000F00000201C03002020030020CD160000F0
:101B8000180300201D35000011180000FFFFFF1F83
:101B9000AD170000B5160000484A52780B2AC9D18B
:101BA000464BDB88002B03D1454B1B78002B27D1FC
:101BB000434B1B780020002B00D18EE63F4B1C7955
:101BC000404B1D682B681B79A34200D885E6002195
:101BD00020003D4B9847002800D176E66B68A200B4
:101BE000D558EB68984701002000374B98470028EC
:101BF00000D16AE6AB689847002800D06DE664E63D
:101C00002E4B1D795C882800304B9847002800D166
:101C100054E6E1B228002E4B984723E0274BDB889F
:101C2000002B00D051E6254B5B88002B00D04CE602
:101C3000224B1879274B984714E0204BDB88002B68
:101C400000D042E61D4B5B88002B00D03DE61B4CCC
:101C50002079214B98472079204B984702E00020BB
:101C600000E00020002800D037E627E6144B1B7860
:101C7000002B00D131E6134B1B681A681279002A39
:101C80001AD00025104E0F4F5B68AA00D458E368A5
:101C9000984701002800B047002800D11DE6A3683E
:101CA0009847002800D018E60135EDB23B681A6865
:101CB0001279AA42E8D810E600200EE6E0070020DC
:101CC0001C03002020030020CD1600004117000057
:101CD000AD170000F1320000ED2F0000C13100000F
:101CE0000C4B1B68002B06D1EFF31083002B07D0A1
:101CF0000022094B1A70074A1368013313607047BA
:101D000072B6BFF35F8F0022044B1A700132024B90
:101D10001A70F0E7280300202C0300200C0100209B
:101D2000084B1A68013A1A601B68002B09D1064B50
:101D30001B78002B05D00122044B1A70BFF35F8F74
:101D400062B67047280300202C0300200C010020FD
:101D5000F0B583B001AC012565700027A770257030
:101D600021003E20064EB0478022D205054B9A61E5
:101D70002770657021000F20B04703B0F0BDC0464A
:101D8000F1210000804400411723002A01D01800EF
:101D900070478B00064A9B58002B03D0834205D026
:101DA0001D23F4E7890088500023F0E70023EEE7C5
:101DB000780500201723002901D018007047002261
:101DC0001F2800D8024A01238340D3600023F4E790
:101DD000001800401723002901D018007047002286
:101DE0001F2800D8024A0123834093600023F4E7B0
:101DF0000018004070B50022104B1A7000231049E3
:101E00001F25104E0D4C0AE00D4908E023780133E0
:101E1000DBB223700F2B10D800211F2BF4D9280020
:101E200018400122824008691042EFD00A619B00ED
:101E30009B59002BEAD09847E8E770BD7505002054
:101E40000018004078050020044A137802210B4353
:101E5000137053785BB2002BFBDB70470018004017
:101E600000B583B0124A936940210B43936101A9E5
:101E700000230B7005200F4B984705200E4B984709
:101E80000E4A137801210B43137053785BB2002B79
:101E9000FBDB0B4B19004031002204C39942FCD1FB
:101EA0001022084B1A60084B984703B000BDC0468B
:101EB000000400402D280000A12700000018004069
:101EC0007805002000E100E0491E000000230360C7
:101ED000436001220272427283720233C3727047FE
:101EE000F0B583B005000C0001A900234B70CB7046
:101EF00023790B70237A8B702078154B984700203C
:101F00001F2D00D8134807222A409200E77AA37AAF
:101F1000002B01D008231F43EB089B00C3189969CD
:101F20000F269640B14397403A000A439A61637A7C
:101F3000002B06D143690122AA409343436103B0B9
:101F4000F0BD42690123AB4013434361F7E7C0464C
:101F5000F12800000018004010B51E4AD369042182
:101F60000B43D3611C4B2022FF321A831A7D0523B9
:101F7000D20701D4180010BD03781B02C0229200C2
:101F800013404178C901FF220A4013438178490078
:101F90001E220A401343C27892048021C9020A40DB
:101FA000134302791204C02189020A4013430A4AEA
:101FB000536093685B035B0F084908249C400C80C6
:101FC00093684B8043780B71138BDB05DB0F1B0190
:101FD000D0E7C0460004004000400041300300202C
:101FE00030B50400224A1088538843438B4206D2FE
:101FF0008022920118201F4BCB1893420ED81E4B03
:102000005D688022D2022A435A602022FF321A835E
:102010001B7DDB0703D4184B5D60052030BD452CCC
:1020200022D8A300154AD3589F46134B1B8BDB05C0
:1020300003D5114B5D601020F0E7890849000E4B75
:10204000D96103E0890849000B4BD961A520000242
:102050000443094B1C80190001220B7D1342FCD064
:10206000054B5D600020D9E7034B5D601720D5E785
:102070003003002000C07FFF00400041146E0000CC
:10208000F8B5254B1D885B886B431824834201D229
:102090002000F8BD6B1E1842FAD1013C9542F7D3DF
:1020A0001E4B1B7D123CDB07F2D51D4C1B4B1C80CD
:1020B0001D0001242B7D2342FCD02024FF34174B2C
:1020C0001C83002A22D0012305009D430023571EB4
:1020D00009E0CE187678360234432C8002339BB266
:1020E00002359A4204D9CC5CBB42F2DBA4B2F4E7DD
:1020F000094B1B790024002BCAD13F2AC8D80022E3
:1021000001000420074B98470400C1E7024B1B79EC
:102110000024002BF3D0BBE7300300200040004137
:1021200044A5FFFFE11F000070B5184B1D885B88B8
:102130006B431824834201D2200070BD6B1E1842ED
:10214000FAD1013C9542F7D3114B1B7D123CDB07C2
:10215000F2D52024FF340E4B1C83002A14D0012317
:1021600098430023561E04E002339BB202309A4289
:1021700008D90488A4B2CC54B342F5DACD18240AA5
:102180006C70F1E70024D7E70024D5E73003002086
:1021900000400041134B1A885B8853431821834247
:1021A00001D2080070479200013A1042F9D10E4B5B
:1021B0001B7D1339DB07F4D50B4B2022FF321A832A
:1021C00080084000D861094A1A80190001220B7D5D
:1021D0001342FCD0044B198B1C200140481E814146
:1021E0008900DEE7300300200040004102A5FFFF28
:1021F00000B583B001AB80221A700A785A704A7811
:102200009A708A78DA701900014B984703B000BDC4
:10221000F128000070B50C490B6A04788578407885
:102220000122104080014026B34303432A40D201DB
:1022300080208343134303222240120203480340B9
:1022400013430B6270BDC04600080040FFFCFFFF57
:10225000F0B5CE46474680B5194B99469B69417803
:102260008C4605780679C778447980780121084042
:10227000800004229343034360460840C0000432B8
:10228000934303433800084080014027BB43034386
:1022900030000840C0018026B343034307200540B7
:1022A0002D02084803402B43214009030648034000
:1022B0000B434A4693610CBC90469946F0BDC0461C
:1022C00000080040FFF8FFFFFFEFFFFFF0B5DE461C
:1022D00057464E464546E0B50100264B9B469B8A35
:1022E000457800784242424191468878CA789446BF
:1022F0000A7990464E7B0F7B8C7B8A681E494A6127
:1023000001214A4692009146042293434A461343D0
:1023100042460A40D2009046082293434246134365
:1023200062460A40120194461022934362461343C8
:10233000084040012022934303430F40BF01402047
:1023400083433B430E40F6014030834333437938A7
:1023500005402D02094803402B432140090308484A
:1023600003400B435A4693823CBC90469946A24692
:10237000AB46F0BD0008004038030020FFF8FFFF27
:10238000FFEFFFFF10B5037A9B061B0C42899205F5
:10239000920D134318494B608379C27913434288E5
:1023A0008488224313434278D20113430B6003789D
:1023B000042B11D0202B0ED1037B9B06028A1343E2
:1023C000C28912040D490A4013430B4A93601168F5
:1023D0000B4B0B43136010BD037B9B06028A134318
:1023E000C289120405490A401343034A93601368E3
:1023F00004210B431360EEE7380300200000FF03C5
:1024000024040000082803D88000254B1B589F4651
:10241000172044E0234A136A02210B431362002071
:102420003DE0204A936902210B439361002036E08E
:102430001C4A138A02210B43138200202FE0194A01
:10244000938A02210B439382002028E016490B68EF
:10245000022213430B60134B9A8419000E32CB688F
:102460001A42FCD0104A91680E4BD96252689A62A7
:1024700000229A8419001032CB681A42FCD00A4B11
:102480001B689BB2074A9384002008E00549442258
:102490008B5C022003438B54002000E00020704737
:1024A0002C6F00000008004038030020F0B5D6462D
:1024B0004F464646C0B590B0C222D200604B9A60EB
:1024C000604A53681E218B431A390B435360032221
:1024D00001AB1A7000245C4DE0B201A9A847013499
:1024E000252CF9D10CA800230370837080221202DE
:1024F0008260C370012202710373837305324270DC
:102500004373524B98470520514B98474C49022240
:10251000CB681A42FCD04A498B8A802213438B82B3
:102520004C4C2368DB048A695B0E1B044A4802405A
:1025300013438B610AA80123437083700025C57083
:102540000371063303704571444B98470420404B98
:10255000984705AB00225D809A71DA7120211970CD
:102560005A7023689B0E3F2B68D005A8037207237F
:1025700003730333C3813A4B4381FF3B8380394B61
:102580000382394B984704A80025457001268670C0
:102590000570364B984706202D4B99469847344B8B
:1025A000984701AC6660657006239A4623702672D0
:1025B0006672210001202F4B9846984701202E4F2C
:1025C000B8476660657053462370257265722100B6
:1025D0000220C0470220B84765706572042323704B
:1025E0001C336360267221000420C0470420B847D2
:1025F0000720C84712491022CB681A42FCD0104A63
:10260000938C80210B4393841C4A002313725372D2
:102610009372D37201A901224A604B7007330B7089
:102620000A724A720020134B98470020124B9847B9
:1026300010B01CBC90469946A246F0BD203B94E7E2
:1026400000080040004000412D280000CD2200007D
:102650000524000024608000FFFF80FF512200005D
:10266000FF01000080BBFFFF852300001522000052
:1026700081260000A52600005D2700000004004020
:10268000064A936908210B4393610122044B1A7097
:1026900019000B781342FCD17047C046000400407B
:1026A000000C004070B5060004000D782D020543B3
:1026B0004B78002B02D08023DB021D434B7A002B8A
:1026C00002D080231B031D434868012810D9431EF4
:1026D000184234D1022830D90223002201325B0093
:1026E0009842FBD812023243140080235B031D433F
:1026F0000B7A002B02D080239B031D43134A53788F
:102700005BB2002BFBDB124B9847124B1E700F4A3B
:1027100053785BB2002BFBDB0C4B9C601A005378A8
:102720005BB2002BFBDB094A5368802149020B4056
:102730001D435560084B984770BD0022D2E7040244
:10274000344380239B021D43D2E7C046000C004067
:10275000E11C0000080C0040211D000010B5040021
:102760000B4A53785BB2002BFBDB0A4B98470A4BB2
:102770001C70074A53785BB2002BFBDB044A51689C
:1027800080235B020B435360044B984710BDC04647
:10279000000C0040E11C0000040C0040211D000062
:1027A00010B50400064B9847064B1C70064A538828
:1027B0008021C9010B435380044B984710BDC0468C
:1027C000E11C0000020C0040000C0040211D000034
:1027D00010B504000F4B98470F4B1C700F4A5388DD
:1027E0001B05180F53880E490B40538053880D4921
:1027F0000B40538011008022D2014B881342FCD140
:1028000006494A8803020648024013434B80064BA0
:10281000984710BDE11C0000020C0040000C004075
:10282000FFF0FFFFFFBFFFFF211D000010B50C7878
:1028300024020443024B9847A4B2024B5C8010BDB3
:10284000D1270000000C004030B5D378002B35D1E3
:102850001378802B29D01B068024640223435478EC
:102860000225AC4306D19478002C20D18024A40208
:10287000234341605478013C012C1CD90D042D0CDC
:10288000A024E4052C431C4384620D0CD0242406B0
:102890002C431C438462D478002C22D15B031CD5CA
:1028A0009378012B1ED0416117E00023D7E7C024A5
:1028B000E4022343DDE70D4C2340DFE741600C04D5
:1028C000240CA023DB05234383620C0CD0231B06BE
:1028D00023438362D378002B03D15378013B012B30
:1028E00002D930BD8161F8E78160FAE7FFFFFBFFA5
:1028F00010B50A00C1090023002904D14309DB01F6
:1029000005498C4663441F24204001218140180062
:10291000024B984710BDC0460044004149280000C2
:102920007047000010B5054B9847054B9847054B7D
:102930009847054B9847054B984710BDAD240000BC
:10294000511D000021290000611E00002129000006
:1029500010B584B003AB00221A7003325A70013AEA
:102960009A70013ADA70274B1B78834207D000280F
:1029700007D1244B1B78002B23D1224B187004B0B5
:1029800010BD03AB1B5C204AD25CFF2A00D1FEE7DE
:10299000EFF3108251424A41019272B6BFF35F8F4A
:1029A00000211A4A1170019C1749CA5C0132CA54AD
:1029B000002CDED00122154B1A70BFF35F8F62B678
:1029C000D7E703AAD35C104AD25C002A00D1FEE705
:1029D000EFF3108251424A41029272B6BFF35F8F09
:1029E00000210A4A1170029C0749CA5C013ACA5484
:1029F000002CC2D00122054B1A70BFF35F8F62B664
:102A0000BBE7C046D0030020700500200C01002069
:102A10000F2303405B00C009181802388300181800
:102A20008000014B1818704758030020F0B5D646B7
:102A30004F464646C0B589468D796BB2002B26DBE2
:102A400028005E4B984704000F272F40038A9846C2
:102A50004B461B889A46837C5B076AD4E3685344E1
:102A60001E00E360A3689E4200D874E0E360A37C8C
:102A700001229343A3742368002B03D0E1682A004A
:102A8000002098471CBC90469946A246F0BD2800FD
:102A90004A4B984704000F272F40038A98464B461D
:102AA0005E88C3689C466644C66081688E4225D0B5
:102AB0008D1BADB2424B9D4206D91D004146180008
:102AC000404B98476D1AADB2A27C0023920707D500
:102AD000414628003C4B984789B24B424B41DBB200
:102AE0005B00A27C02218A431343A374626892199B
:102AF0002B0039003548364CA047C3E7837C9B0741
:102B00000BD4837C0122934383740368002BB9D0D8
:102B10002A00310000209847B4E7837C02229343C7
:102B2000837442689219002339002848284CA04732
:102B3000A8E74368C268944663441E004146806823
:102B4000214B98470A007B1E9B01224959183000EF
:102B5000214B984782E74A469288524500D086E743
:102B60009E4200D183E79B1B9DB2154B9D4216D917
:102B70001D0041461800134B98476B1A9BB29845AD
:102B800014D9A37C04221343A3747A1E9201114B1F
:102B9000D218434639000D48104CA04772E7414611
:102BA0002800094B98476B1A9BB2E8E762689219B4
:102BB00039000648094CA04764E7C046112A0000C6
:102BC000FF1F0000C54E0000F14C000078060020F9
:102BD000C13C0000B8050020CD640000153D000098
:102BE00010B50522054B1A70054C80212000054BBD
:102BF000984700212000044B984710BD5603002041
:102C000078060020153C00003B3C000070B50E002B
:102C10000E4C062120000E4DA84704212000A84795
:102C2000022120000B4B984702200B4B984733683A
:102C3000002B04D1094B9847094B984770BD094BAD
:102C400098473368002BF7D1F4E7C0467806002098
:102C50005537000035370000512900005148000069
:102C6000454800005D48000070B5134B9B8C9B06E7
:102C70001CD41149D022CB681340D02BFBD10F4C70
:102C8000022120000E4B9847042120000D4DA8473B
:102C90000D4A062120000D4B984706212000A84729
:102CA00003200B4B98470B4B984770BD02491022ED
:102CB000CB681A42FCD0E2E700080040780600200A
:102CC00055370000353700000D2C0000113700008B
:102CD000512900000D48000030B583B004001E4BA0
:102CE000984780232268937201AD28001B4B9847B8
:102CF00003236B7029002000194B984719492000C5
:102D0000194B9847194B022200212000184DA84763
:102D1000184B002200212000A847174B0122002158
:102D20002000A847022200212000144DA8470022BD
:102D300000212000A847012200212000A847216887
:102D40000B890F4A1A408023DB0013430B810022BA
:102D50000C4B1A7003B030BD11180000613900002F
:102D600071390000F8070020653D0000C12E000009
:102D700071370000F1310000C52D0000C13700009F
:102D8000FFF3FFFF5603002010B50322074B1A7014
:102D9000074C08492000084B9847084B9A680023C5
:102DA00000212000064CA04710BDC046560300205D
:102DB00078060020F8070020653D0000E0070020AD
:102DC000C13C000010B589794BB2002B06DB0E4BDD
:102DD0001B78022B0FD0032B11D010BD0A4B1B7890
:102DE000012B05D0042BF8D10848094B9847F4E78C
:102DF000084B9847F1E70422034B1A70EDE70348AC
:102E0000034B9847E9E7C0465603002078060020A8
:102E1000153C0000892D000070B5204B1B88204A0E
:102E20009489E41AA4B2002C18D11E4A11885B18A8
:102E30009BB213801A4AD2889A4223D01A4B1B782D
:102E4000002B1FD1164B5B69002B23D0984700281D
:102E500020D00022114B1A80114B9C893F2C19D98C
:102E60000022114B1A7040240C4D2B880C4A92689A
:102E7000D218230000210D480D4EB0472B88E418CE
:102E80002C8070BD04220B4B1A700B4907480B4B6A
:102E90009847F6E70122044B1A70E5E75203002039
:102EA000E007002054030020500300207806002093
:102EB000C13C000056030020F8070020653D0000DB
:102EC00010B50C002C4B1B78002B07D02B4B1B692B
:102ED000002B00D098470022274B1A702388082B1C
:102EE00002D0274B984710BD244A264B1978117001
:102EF00059785170D878000299780918518058791A
:102F00000002197909189180D97909029B795B1817
:102F1000D3801D4B9847002816D0184B1B787F2B69
:102F200015D8164BDB88002B22D00023174A1380BC
:102F3000174A13800122104B1A704023114A0021B6
:102F40001448154CA047CEE70D4B9847CBE700231C
:102F50000E4A13800E4A13800222074B1A70402338
:102F6000084A00210B480C4CA0470C4B9847BAE785
:102F70000B4B9847B7E7C04656030020E0070020F8
:102F8000E12B0000F8070020A118000054030020E6
:102F90005203002078060020153D0000192E000085
:102FA000892D000010B5024B9847024B984710BD81
:102FB0005D1800001948000010B5074C04212000DE
:102FC000064B984702212000054B98470120054BEE
:102FD0009847054B984710BD7806002055370000EC
:102FE00035370000512900000148000010B50400E9
:102FF00001000A480A4B984720000A4B9847837CF7
:10300000DB070AD5837C0122934383740368002B7A
:1030100003D0C16822000120984710BD7806002027
:10302000B53B0000112A000000207047024B1B68CE
:10303000188A8004400D704778060020024B1B68F8
:10304000188A80B27047C0467806002070B582B0FA
:10305000040001AD28000D4B984720000C4B984709
:103060002C700023EB700B4E290030000A4B984760
:103070000F21214000223000084B984700222100F8
:103080003000074B984702B070BDC0466139000060
:10309000ED2F0000780600207139000099370000FC
:1030A00091380000F0B583B005000F00140001AEA8
:1030B0003000364B98473570082C13D8002201ABEE
:1030C0005A702800324B9847048203213940012965
:1030D00038D0022943D0002303293DD1042201AB7B
:1030E000DA7032E0102C03D8012201AB5A70E8E705
:1030F000202C03D8022201AB5A70E2E7402C03D8FF
:10310000032201AB5A70DCE7802C03D8042201AB08
:103110005A70D6E780235B009C4203D8052201AB9E
:103120005A70CEE780239B009C4203D8062201AB55
:103130005A70C6E7174A002394420DD8072201AB04
:103140005A70BEE7022201ABDA7001A91248134B94
:1031500098470023002806D0180003B0F0BD0322D2
:1031600001ABDA70F1E70F2129400B4C0C4B002228
:1031700020000C4EB0470022290020000A4EB04724
:10318000012229002000B0470123E5E76139000052
:10319000112A0000FF0300007806002071390000AA
:1031A0002D2A000071370000C137000010B5010062
:1031B0000148024B984710BD78060020EB3B000009
:1031C00010B504000F2303400020032B00D910BDCD
:1031D00021000448044B98472000044B98470120E5
:1031E000F5E7C04678060020153C0000ED2F0000F2
:1031F00070B5344B1B78012B0AD0022B5FD0324BB9
:103200001B69002B00D0984700222E4B1A7070BD0E
:103210000D882D4B9B892D4A14886219934201DA3F
:103220001D1BADB2284B986800192A002849294B6C
:1032300098476419A4B2254B1C80402D0AD0224B1C
:103240009C815B69002B02D09847002814D0224B48
:103250009847DCE71C4BDA88204B1B881B199A42E5
:10326000EDDD194B9B89A3420CD04023184A002165
:103270001B481C4CA047CAE70522124B1A701A4B78
:103280009847C4E7104B5B69002B0BD09847002888
:103290000FD012490D4A0B8810881B180B80002391
:1032A0001380E2E70522074B1A7000200E4B984767
:1032B000ADE70522034B1A700B4B9847A7E70B4B62
:1032C0009847A4E756030020E0070020520300209F
:1032D000F8070020CD640000892D00005403002071
:1032E00078060020153D0000C1310000192E0000B5
:1032F00070B504000F2303400020032B00D970BDDC
:103300002000094B9847050021000848084B9847C2
:10331000AB7C0120DB07F2D5AB7C01229343AB747D
:103320002B6898470120EAE7112A00007806002060
:103330003B3C0000F0B587B0050003910292019379
:103340000F2606400024032E02D9200007B0F0BD4E
:10335000644B9847041E00D0BDE02800624B98479C
:103360000700EFF310835A425341059372B6BFF33F
:103370005F8F00225D4B1A70059A837CDB0708D5AE
:10338000002AE2D00122594B1A70BFF35F8F62B658
:10339000DBE7837C01210B438374002A05D00122E3
:1033A000524B1A70BFF35F8F62B6029B7B60019B2A
:1033B000BB600023FB600C9B3B600123039A13401E
:1033C0005A00BB7C02218B43134304229343BB74FA
:1033D0006BB2002B20DB019B002B6FD09CB2444BC7
:1033E0009C425AD9398A1C001800424B9847631AEC
:1033F0009AB23B8A9A4257D2BA7C04210A43BA74E1
:10340000721E92013C49521831003C483C4CA04786
:1034100044424441E4B298E7019B002B27D09DB27F
:10342000334B9D4206D9398A1D001800314B98470D
:103430006B1A9DB2BB7C9B0707D5398A2800314B9C
:10344000984789B24C424C41E4B2012020404000F0
:10345000BC7C02239C430443BC742B00029A3100C1
:103460002648294CA04744424441E4B26DE7BB7C66
:103470009B0705D5BB7C02229343BB740025ECE778
:10348000BB7C01229343BB740C9B002B25D02A00EC
:10349000002100209847012457E7398A2000194B62
:1034A0009847631A9AB2A4E71300029A31001348AE
:1034B000134CA04744424441E4B246E7BB7C01229E
:1034C0009343BB740C9B002B09D02A0000210020E1
:1034D0009847012439E7002437E7012435E7012420
:1034E00033E7C046AD310000112A00000C01002076
:1034F000FF1F0000C54E0000B80500207806002020
:10350000153D0000F14C0000C13C0000024B1B685F
:10351000802210439872704778060020024B1B6887
:10352000987A4006400E704778060020014B98605C
:1035300099817047E007002010B5054B1A68138980
:1035400001210B4313810120024B984710BDC04657
:10355000780600205129000070B50320164B9847CB
:10356000164C2268138901218B431381144A0331BD
:103570002000144EB047144A00212000B047134ADF
:1035800001212000B047124A02212000B047042147
:103590002000104DA84700212000A847012120004D
:1035A000A84702212000A8470B4A06212000B04767
:1035B00006212000A84770BD512900007806002090
:1035C000B92F000011370000A52F0000D92C0000F2
:1035D000692C0000353700000D2C000010B50021CB
:1035E0000E20084B9847084B1B6A5B0406D4074B18
:1035F000984700210E20064B984710BD054B984771
:10360000F7E7C046D51D00000044004139350000F1
:10361000B51D00005935000070B586B0EFF310837A
:103620005A425341019372B6BFF35F8F0026294B74
:103630001E70019D05AC2000274B9847A670274EB1
:10364000220027493000274B98473000264B9847E7
:10365000264B9B8C9B0634D42449D022CB68134044
:10366000D02BFBD10120224B984702AC2000214BEC
:1036700098470E2302930023636023720333E3729F
:10368000023BA37200210E201B4B984721000E2005
:103690001A4B984700220E2119481A4B98470021CF
:1036A0000E20194B9847194B1B6A5B040FD4002D51
:1036B00005D00122074B1A70BFF35F8F62B606B0C8
:1036C00070BD0A491022CB681A42FCD0CAE70C4BE5
:1036D0009847ECE70C0100207143000078060020B9
:1036E0000050004181430000953D0000000800406B
:1036F00051290000CD1E0000D51D0000E11E000074
:10370000DD350000891D0000B51D000000440041AA
:1037100010B50B002E339B001A50AA22520049000C
:10372000835A034C095B0B438352002010BDC046F3
:10373000646F00004900064BCB5A02689383AB21AB
:103740004900425A1A4342520268138300207047CC
:10375000646F00004900054BCA5AAB214900435A27
:103760009343435203689A8200207047646F0000BD
:1037700010B58C00A4183434A400041963604018F8
:103780005930FF30037803498A5C134303700020EB
:1037900010BDC046746F000010B58B009B18343309
:1037A0009B00C31800245C6040185930FF30034B65
:1037B0009A5C037893430370002010BD746F00007F
:1037C00070B50F230B40C4186134FF3425782F4E99
:1037D000B65C35432570002A29D1002B12D1032570
:1037E0000A24FF3406683555032A09D149B2002955
:1037F00044DB02685B01D3180A33FF3320221A70BE
:10380000002070BD4CB2002C08DB5C010568AC46A2
:1038100064440A34FF3401252570E5E75C0105683E
:10382000AC4664440A34FF3402252570DCE7012AE3
:103830001AD1002B05D102680C210A23FF33D15481
:10384000DEE749B2002907DB02685B01D3180A33BF
:10385000FF3304221A70D3E702685B01D3180A33DE
:10386000FF3308221A70CBE7022ABDD102685B0140
:10387000D3180A33FF3310221A70C1E702685B01C4
:10388000D3180A33FF3340221A70B9E7746F00006F
:1038900070B50F230B40C4186134FF342F4DAE5C5C
:1038A0002578B5432570002A29D1002B12D1032594
:1038B0008424640006683555032A09D149B20029D9
:1038C00044DB02685B01D3180933FF3320221A70EE
:1038D000002070BD4CB2002C08DB5C010568AC46D2
:1038E00064440934FF3401252570E5E75C0105686F
:1038F000AC4664440934FF3402252570DCE7012A14
:103900001AD1002B05D102680C210933FF33D154A1
:10391000DEE749B2002907DB02685B01D3180933EF
:10392000FF3304221A70D3E702685B01D31809330E
:10393000FF3308221A70CBE7022ABDD102685B016F
:10394000D3180933FF3310221A70C1E702685B01F4
:10395000D3180933FF3340221A70B9E7746F00009F
:1039600000230370437083700133C37070470000FD
:10397000F0B50C780F23234064B2CA78042A70D8BB
:103980009200894DAA589746026808335B010021CE
:103990009954002282E05C010268944664448022CB
:1039A0005200A55CE43A6D0778D1E432A65C70253C
:1039B000E43A2E4272D15F3DE432A5541A00083237
:1039C00052010468A4182F356571006882188020A0
:1039D00010718A78002A1FD05801744A121854684E
:1039E0008020000604435460546920435061072539
:1039F0004C785A016D4B9B1858682C4024076C4E2C
:103A000030402043586049785A69294009073240BC
:103A10000A435A61002241E05801644A1218506872
:103A20004000400850605069400040085061DEE7A7
:103A3000002C35DB5D01026894466544802252000B
:103A4000AE5CE43A760729D180267600AA5D02278B
:103A50003A43AA5502681800083040011218402065
:103A60005071E20F4F785D00AD182D014F4E751962
:103A7000686807243C4024074D4E3040204368606E
:103A80008978002900D088E05B009B181B01474A19
:103A9000D3185A68520052085A6000221000F0BD34
:103AA0005D0102689446654480225200AF5C702636
:103AB000E43A3742F2D19036AA5D20273A43AA551C
:103AC0000268180008304001121880201071C8E701
:103AD000002C17DB5D010268944665448022520089
:103AE000AE5CE43A7607D9D180267600AA5D03273A
:103AF0003A43AA55026818000830400112184020C5
:103B00005071AEE75D010268944665448022520020
:103B1000AF5C7026E43A3742C0D19036AA5D3027B8
:103B20003A43AA5502681800083040011218802054
:103B3000107196E7002C17DB5D010268944665441E
:103B400080225200AE5CE43A7607A7D18026760048
:103B5000AA5D04273A43AA550268180008304001BC
:103B60001218402050717CE75D010268944665445C
:103B700080225200AF5C7026E43A374200D08DE7D5
:103B80009036AA5D40273A43AA55026818000830CB
:103B9000400112188020107163E7696880231B06BA
:103BA0000B436B60002279E7506F0000380800205B
:103BB000FFFFFF8F0F230B4049B200290ADB0833B8
:103BC0005B010268D218402151710268D3180122AA
:103BD000DA71704708335B010268D21880211171D5
:103BE0000268D3180222DA71F3E70F230B4049B2BF
:103BF000002907DB026808335B01D3189879C006F7
:103C0000C00F7047026808335B01D31898798006AB
:103C1000C00FF6E70F230B4049B2002906DB02680C
:103C200008335B01D31810225A71704702680833B9
:103C30005B01D31820225A71F7E730B50F230B40F0
:103C400049B200291DDB590102685218832464001F
:103C5000145DE40614D5102582246400155502680D
:103C600052180821FF31515C890609D5E43C08212E
:103C7000FF315454026808335B01D31801221A71D2
:103C800030BD59010268521883246400145DA406F3
:103C9000F6D52025822464001555026852180821A3
:103CA000FF31515C4906EBD5C43C0821FF31545427
:103CB000026808335B01D31802221A71E0E70000A2
:103CC00030B50C00083464010568645D6406640F57
:103CD0001C25002C01D1280030BD4C010B4D2D19A5
:103CE0002C002A616A690A4D2A40626162699B045C
:103CF0009B0C920B920313436361036808314901E3
:103D0000591880234B710025E5E7C046380800208C
:103D1000FF3F00F030B50C00083464010568645DB5
:103D200064071C25002C01D1280030BD0B4C4D012F
:103D30002A51621954689B041B09094D2C402343E6
:103D4000536053689B0B9B03536003680831490120
:103D5000591840230B710025E6E7C04638080020BB
:103D6000FF3F00F0094B19605A6809491140802251
:103D700092020A435A605A68920B92035A60026890
:103D8000402182235B00D154002070473808002076
:103D9000FF3F00F00268137802210B4313700268A2
:103DA0009378022BFCD07047F0B5DE4657464E465E
:103DB0004546E0B583B0C24B1F683D682B78DB09F0
:103DC00014D12E8CB6B2002E00D0A9E1AE8BB6B2C3
:103DD000AB235B00FB5AAA225200BD5A1D4035405E
:103DE0000024B84FB64B9946984684E12B8C9BB281
:103DF000002B00D1DEE0288C80B2B34B9847040042
:103E00001F2800D9D6E0030008335B01ED18ED79D7
:103E1000EDB2AB0741D0AD4A01238340116899430D
:103E20001160030008335B013A689446634403223F
:103E3000DA713B18AE331B78DB072ED5A44B187014
:103E40003A68030008335B019B5C9B079B0F012BC7
:103E500000D181E042019F4B9B185A681201920CDD
:103E600090B29B494A805A689204920C8A805A68A0
:103E700099490A405A60002807D16201954B9B1866
:103E80005B689B049B0C924A53808D4B1868A31C63
:103E90001B01C3185B688E4998476B070ED58B4A88
:103EA0000123A340116899431160854B1B681B686F
:103EB0002200083252019B180422DA712B0714D514
:103EC000824A0123A3401168994311607C4B186812
:103ED000230008335B010268944663440822DA71C8
:103EE0000319AE331B789B0747D4EB0614D5774AEA
:103EF0000123A340116899431160714B1868230096
:103F000008335B010268944663441022DA71031996
:103F1000AE331B785B073ED4AB0600D4B0E06B4AEF
:103F20000123A340116899431160654B1868230071
:103F300008335B010268944663442022DA71031956
:103F4000AE331B781B0700D49AE061490C70240142
:103F50000419236B984793E042015E4B9B185A6803
:103F60009204920C5A494A805A681201920C8A8033
:103F70005A68920B92035A6087E755490C706201A8
:103F8000544B9B18DB891F2213404B702301C3182D
:103F90009B6A9847A9E74E490C7062014D4B9B18EC
:103FA0005B681B019B0C4B802301C318DB6A00215B
:103FB0009847B1E7AC8BA4B2630705D50423AB8364
:103FC000A133FB5CDB0762D423070BD500223F4BF8
:103FD0001A603B4B18680823026893839D33C35CC7
:103FE0009B0758D4630608D5354B186840230268F0
:103FF00093836533C35CDB0650D4A30608D5304BEE
:1040000018682023026893838533C35C1B0748D458
:10401000E30608D52A4B186810230268938395336A
:10402000C35C5B0740D423060BD50022274B1A60E4
:10403000234B18688023026893832533C35C9B0657
:1040400035D4E3050CD50022204B1A601C4B1868B0
:1040500080235B00026893835B3BC35C5B0629D4CF
:10406000A3050DD50022194B1A60154B1868802343
:104070009B00026893835C3BFF3BC35C7F2B1CD897
:1040800003B03CBC90469946A246AB46F0BD7B6867
:104090003800984798E783689847A3E743699847AB
:1040A000ABE703699847B3E7C3689847BBE7836901
:1040B0009847C6E7C3699847D2E7036A9847DFE79E
:1040C000D4030020646F00000D4F0000E4030020C3
:1040D000E803002038080020FF3F00F023002E33C3
:1040E0009B00424612689B589E494246106898477A
:1040F0000134072CC4D06300DB5B334203D04A4653
:104100001268126893832B42F2D0062CE6D1964BAC
:104110001B891B09802252001340924A1360DDE77D
:104120003C005934FF340023012294465F3291460B
:10413000503A92460D3A9346B8462F00B9E02A000D
:104140003D00474690465B01ED180823FF33EB5CCA
:104150005B0616D540220823FF33EA54883BFF3B19
:1041600042461343814A937160230B4200D187E793
:10417000019B1B01FB18E0331B687C493800984702
:104180007EE70823FF33EB5C9B06EDD52022082356
:10419000FF33EA54754B42469A71E5E73D004746C6
:1041A000019A130008335B01ED181023EB71BB1863
:1041B0006133FF331B78DB0600D461E71000520146
:1041C000694B9B185B689B049B0C68490B8003013F
:1041D000FB18DC331B684046984751E72A003D0036
:1041E000474690465B01ED180823FF33EB5C9B07C5
:1041F0001ED502220823FF33EA545C48883BFF3B6C
:10420000424613438371019B5A01574B9B1810334D
:104210005B689B049B0C43808B0700D130E7019BBC
:104220000D331B01FB185B6850493800984727E79E
:104230000823FF33EB5CDB07EED501220823FF33B5
:10424000EA544A4843468371019B5B01464AD218AF
:1042500053689B049B0C038053681B019B0C838059
:10426000DAE70822FF329A5C52076ED50420082252
:10427000FF329854019842013B4B9B189B7A9B0755
:1042800005D5394B9B189A7A022082439A72374B94
:1042900042469A71019B08335B013A689446634435
:1042A000DB79DB0751D5EBE601330134082B00D174
:1042B000E6E6DDB2019332001A4161461142F3D0C5
:1042C0001A0008325201BA18D279D2B2217A1140BA
:1042D000207801404846104200D030E75046104256
:1042E00000D05BE75846104200D077E70C20104220
:1042F000DAD02A003D00474690465B01EB180822C1
:10430000FF329A5C1207ACD504380822FF32985469
:1043100001984201144B9B189B7E9B0705D5124BBD
:104320009B189A7E022082439A7680235B42424603
:1043300013430E4A9371019B08335B013A6894461C
:104340006344DB799B0700D59AE60C230B4200D12E
:1043500096E6019B1B01FB18D8331B680349380004
:1043600098478DE6D803002038080020DC030020A1
:1043700000220270012343708270C37070470000F6
:10438000F0B5CE46474680B583B004000D00160058
:1043900000236E4A13606E4A106021606D49CA693D
:1043A00020200243CA6101AF7B700122BA70FB700A
:1043B000063399463B7039000838674B9846984752
:1043C0004B463B7039001920C047B3786A461370DA
:1043D00069460620614B98470620614B98472B7829
:1043E000012213432B70AB78DB07FCD45D4AD378F2
:1043F00003218B4302210B43D370D3780C218B43D1
:1044000008210B43D370584B1B689B03DB0E1F2BFB
:1044100000D18FE02A8D9B0154490A4013432B851C
:10442000514B1B685B02DB0E1F2B00D184E02A8DF1
:104430001F218A4313432B854B4B1B689B015B0F4A
:10444000072B00D17AE02A8D1B0349490A40134308
:104450002B8532782978D2017F230B4013432B70B0
:1044600071782B7801220A40920004218B43134378
:104470002B70404B6B62F378012B61D0002B06D17F
:10448000226813890C218B4304210B431381802262
:10449000520000213748384B9847231D2100243112
:1044A000002204C38B42FCD12100A43100221A60F7
:1044B0005A609A60DA6010338B42F8D10023A4224C
:1044C000A3540132A3542300A6332100AE310022AD
:1044D0001A701A7201339942FAD12300B8332100BD
:1044E000D431002204C38B42FCD121005531FF316D
:1044F00000221A605A609A60DA6010338B42F8D159
:104500000023AA225200A3520232A352230059339D
:10451000FF336134FF3400221A701A720133A34250
:10452000FAD18022154B1A60002003B00CBC9046D3
:104530009946F0BD1A3B6DE7023B78E7043B82E702
:104540002268138908318B431381A0E7E40300201C
:10455000D403002000040040F12800002D280000B2
:10456000A127000000500041246080003FF8FFFFB9
:10457000FF8FFFFF38080020DF64000000E100E04B
:10458000FEE70000F8B52A4A2A4B9A4211D01A00D9
:10459000294B9A420DD2294A03339B1A9B080133B7
:1045A0009B000022234822498C58845004329A42AE
:1045B000FAD1234A234B9A420AD2D34321495B18AA
:1045C00003218B4304339B18002102C29342FCD188
:1045D0001D4AFF211D4B8B439360FD3990235B00E7
:1045E0001B4AD1501B4AD3780325AB4302242343F3
:1045F000D370D3780C27BB4308263343D370164BB4
:10460000987B30229043202210439873997BB943C2
:10461000314399739A7BAA4322439A730F4A536892
:1046200080210B4353600E4B98470E4B9847FEE793
:104630004C700000000000207401002004000020E5
:10464000740100204009002000ED00E0000000009F
:10465000007000410050004100480041004000410E
:1046600085640000BD4600000300064A1268002A67
:1046700004D0044A1068C318136070470249014A05
:104680001160F6E7F00300204029002000B583B058
:1046900000226B461A70074B5B68DB061B0F6946EE
:1046A0008B70CA700A714A706846034B984703B012
:1046B00000BDC04600400041591F000010B5012157
:1046C00001243B4B1970BFF35F8F62B6394B002258
:1046D0001A705A709A70DA701971374B9847374BC5
:1046E00048215A5C22435A543422995C0F2081435A
:1046F0009954995C0C38014399544630195C214314
:104700001954995C3A3801409954995C213001431D
:1047100099542B4A136A10210B431362294A2A4BDE
:104720005A8080225200294B5A60DA69002AFCD153
:104730002232264BDA60DA69002AFCD1244A234B64
:104740001A60DA69002AFCD1204A538B10210B43EE
:1047500053831300DA69002AFCD1194A116A8023B5
:104760005B010B4313621B4A174B5A801A4BA92259
:1047700052011A8000221A82C82292001A831A88D3
:1047800002210A431A80154B9847154B9847154B41
:104790009847154B9847154B98472023144A1360A8
:1047A000144A1360144B9847144B9847FEE7C046D1
:1047B0000C01002070050020252900000044004164
:1047C0000004004016420000000C004000100042AF
:1047D000160030001C420000003000428D460000F0
:1047E00005180000BD490000D94900005D0F000018
:1047F0000844004114440041FD140000F10400008D
:1048000010B5014B984710BDF115000010B5014BD4
:10481000984710BD2116000010B5064B9847064B6F
:104820001B78002B00D110BD044B9847044B9847D0
:10483000F9E7C046ED120000F40300202D3000001F
:104840003516000010B5014B984710BDF11500005A
:1048500010B5014B984710BD1116000010B5014B63
:10486000984710BD011600000122024B1A7001206A
:104870007047C046F40300200022014B1A707047B5
:10488000F403002010B5002902D1034B984710BD56
:10489000024B9847FBE7C046331600003116000074
:1048A0008922214B5A621900873A0B7E1342FCD0B1
:1048B0001D4B5B8B5B0730D41B4B5A681B490A406E
:1048C0005A6028229A5C1A4B1A70174902220B7EF2
:1048D0001342FCD02823144AD25C154B5A7012495B
:1048E00002220B7E1342FCD00F4B59688022D20269
:1048F0000A435A605968C02292020A435A60282229
:10490000995C0B4A91705A8B10210A435A831A0002
:10491000D369002BFCD106487047034A5168C02375
:104920009B020B435360F6E700100042FFFFFBFFC2
:10493000F803002070B51E4B187059709A708822C9
:104940001C4B5A621900873A0B7E1342FCD0194B5C
:104950005B8B00205B0716D4154E164A28250121D3
:104960000424835D5355137E0B42FCD0538B2342AA
:1049700013D101300328F4D10E4A5168C0239B02A1
:104980000B43536070BD0B4A5168C0239B020B431D
:1049900053604130084B9847F4E7064A5168C023FA
:1049A0009B020B4353604220034B9847EAE7C04603
:1049B000FC03002000100042CD0D000010B51022B5
:1049C000C4210120034CA047002200210020A04761
:1049D00010BDC046354900007047000081221C4BC5
:1049E0005A6219007F3A0B7E1342FCD0184B5B8B46
:1049F0005B0707D5164A5168C0239B020B435360DF
:104A000014487047124B5A6813490A405A602822CA
:104A10009A5C104B1A700E4902220B7E1342FCD096
:104A20000B4B59688022D2020A435A605968C0224F
:104A300092020A435A602822995C064A51705A8BA6
:104A400010210A435A831A00D369002BFCD1D7E7FF
:104A50000010004200040020FFFFFBFF10B51A4BBE
:104A600018708022194B5A6219007F3A0B7E13424C
:104A7000FCD0164B5B8B5B0712D42823134AD0540F
:104A8000110001220B7E1342FCD0104B5B8B5B07A5
:104A900010D40E4A5168C0239B020B43536010BDD3
:104AA0000A4A5168C0239B020B4353604120084BC4
:104AB0009847F4E7054A5168C0239B020B435360B3
:104AC0004220034B9847EAE704040020001000420C
:104AD000CD0D000010B5E320164B98470022164B71
:104AE0001A820A211A0010209073937BDB06FCD5F2
:104AF000013989B20029F7D1104B9847104B186043
:104B000003781B02407818430E4B18800E4B9847D1
:104B10000E4A0F4B0F4CA04700220F4B0F4CA047E3
:104B20000F4A104B104CA047104B9847C0B2104B87
:104B3000187010BD5D4A000000300042DD490000E1
:104B4000080500203A09002085610000D7A3703DC8
:104B50000AF76540F1550000E0FFEF40894F000083
:104B6000CDCCCCCCCC6C4740F15A00004D4F00006E
:104B70005004002010B5E520124B98470022124B3C
:104B80001A820A211A0010209073937BDB06FCD551
:104B9000013989B20029F7D10C4B98470C4B1860AA
:104BA00002781202407802430A4B1A805001801AA0
:104BB000800080180849094B98470638C0B2084B56
:104BC000187010BD5D4A000000300042DD49000051
:104BD0000805002038090020FFFF0000F94C000004
:104BE00068050020002243088B4274D303098B42DE
:104BF0005FD3030A8B4244D3030B8B4228D3030CAD
:104C00008B420DD3FF22090212BA030C8B4202D34E
:104C10001212090265D0030B8B4219D300E0090A76
:104C2000C30B8B4201D3CB03C01A5241830B8B427F
:104C300001D38B03C01A5241430B8B4201D34B0368
:104C4000C01A5241030B8B4201D30B03C01A5241CD
:104C5000C30A8B4201D3CB02C01A5241830A8B4252
:104C600001D38B02C01A5241430A8B4201D34B023B
:104C7000C01A5241030A8B4201D30B02C01A52419F
:104C8000CDD2C3098B4201D3CB01C01A5241830953
:104C90008B4201D38B01C01A524143098B4201D38D
:104CA0004B01C01A524103098B4201D30B01C01AB8
:104CB0005241C3088B4201D3CB00C01A5241830832
:104CC0008B4201D38B00C01A524143088B4201D35F
:104CD0004B00C01A5241411A00D2014652411046BF
:104CE0007047FFE701B5002000F0F0F802BDC046B4
:104CF0000029F7D076E7704703460B437FD40022A4
:104D000043088B4274D303098B425FD3030A8B425F
:104D100044D3030B8B4228D3030C8B420DD3FF22C9
:104D2000090212BA030C8B4202D31212090265D097
:104D3000030B8B4219D300E0090AC30B8B4201D34A
:104D4000CB03C01A5241830B8B4201D38B03C01A91
:104D50005241430B8B4201D34B03C01A5241030B08
:104D60008B4201D30B03C01A5241C30A8B4201D3B9
:104D7000CB02C01A5241830A8B4201D38B02C01A64
:104D80005241430A8B4201D34B02C01A5241030ADB
:104D90008B4201D30B02C01A5241CDD2C3098B42C0
:104DA00001D3CB01C01A524183098B4201D38B013D
:104DB000C01A524143098B4201D34B01C01A5241E0
:104DC00003098B4201D30B01C01A5241C3088B4225
:104DD00001D3CB00C01A524183088B4201D38B0010
:104DE000C01A524143088B4201D34B00C01A5241B2
:104DF000411A00D201465241104670475DE0CA0F89
:104E000000D04942031000D34042534000229C4648
:104E100003098B422DD3030A8B4212D3FC22890152
:104E200012BA030A8B420CD3890192118B4208D328
:104E3000890192118B4204D389013AD0921100E08A
:104E40008909C3098B4201D3CB01C01A524183099E
:104E50008B4201D38B01C01A524143098B4201D3CB
:104E60004B01C01A524103098B4201D30B01C01AF6
:104E70005241C3088B4201D3CB00C01A5241830870
:104E80008B4201D38B00C01A5241D9D243088B42C6
:104E900001D34B00C01A5241411A00D20146634669
:104EA00052415B10104601D34042002B00D54942CD
:104EB000704763465B1000D3404201B5002000F00C
:104EC00005F802BD0029F8D016E770477047C046C4
:104ED0001C2101231B04984201D3000C10391B0A2A
:104EE000984201D3000A08391B09984201D30009EE
:104EF000043902A2105C40187047C0460403020245
:104F000001010101000000000000000041420840D2
:104F10001C2101231B04984201D3000C10391B0AE9
:104F2000984201D3000A08391B09984201D30009AD
:104F3000043902A2105C401A7047C0461B1C1D1D9C
:104F40001E1E1E1E1F1F1F1F1F1F1F1F70B50022AA
:104F50000C4B04000D0001F08BF9002804D1200057
:104F6000290001F0DBF870BD064B0022200029006B
:104F700000F0BEFD01F0D2F880231B069C46604481
:104F8000F1E7C0460000E041F0B557464546DE4631
:104F90004E46E0B54C000E0387B0834692461D0096
:104FA0008046360B640DCF0F002C4FD06F4B9C42C8
:104FB00035D08023420F1B04F60013433343994638
:104FC000C30098466A4B00269C4600236444039322
:104FD0002B031B0B9B466B00ED0F50465B0D0195A1
:104FE0005ED0624A934253D05A46D1008022400F8D
:104FF000120402430A4393465246D1005C4A944647
:10500000002263443800684084460290E41A164344
:105010000F2E00D9B4E0574BB6009B599F460300B2
:10502000334399466CD100239846023308260393F4
:10503000CEE7CB464146039A0197022A65D1019BF0
:105040004A4C9C460023002298466BE00300334301
:1050500099464ED0002E00D1BCE13000FFF738FF5A
:1050600003000B3B1C2B00DDACE11D22D31A5A467A
:105070000100DA4008398E401300334399465B46FD
:105080008B40984600233C4C0026241A03939FE74C
:1050900051465A46114329D1002293460232B1E7C4
:1050A000594601431ED05B46002B00D19EE1584675
:1050B000FFF70EFF03000B3B1C2B00DD8FE102000E
:1050C0005946083A91408B461D21CB1A5146D9408A
:1050D0000B0059460B4351469B469140264B0022FC
:1050E0001B1A8FE7002301229B468BE751460322C0
:1050F00088E700239846013304260024039367E7DA
:105100000323B14603930C2662E7032A00D15CE235
:10511000019B012A00D0E4E113409C4600230024B7
:105120000022984600211203130B0A0D12051A43A0
:105130002305124C40462240134362465B00D207CF
:105140005B081343190007B03CBC90469946A24641
:10515000AB46F0BD002380229C4612039846034CC8
:10516000E0E70023014C00229846DBE7FF07000040
:1051700001FCFFFF786F00000DFCFFFFFFFF0F80B9
:10518000D94500D939E100D134E1002346464D46E6
:105190009A46013C5B460A0E1B021A430B02170C8F
:1051A000039313041B0C3900280090460193FFF76A
:1051B00019FD0200019B83465A432800390091469D
:1051C000FFF796FD350C09040D43A9450DD95B4643
:1051D0004544013BA84500D93AE1A94500D837E14B
:1051E00002235B429C464544E3444B46EB1A39009C
:1051F00018000493FFF7F6FC019B050043433900B8
:1052000004989946FFF774FD330409041B0C0B4303
:10521000994509D943446A1E984500D91AE1994530
:1052200000D817E1023D43444A469B1A5A461204ED
:105230002A4303999346100C0A0C914609045A46D6
:10524000090C4E460D001204120C454305915143C2
:105250007243704352190E0CB218954203D980253F
:105260006D02AC466044150C09041204090C2818A0
:105270005218834200D2CEE000D1C8E01D1A534636
:105280009E1AB24592415242AB1A9A46984500D1B5
:1052900017E139001800FFF7A5FC019B0500434307
:1052A000390050460493FFF723FD04980B04310C9A
:1052B0001943884209D941446B1E884500D907E14A
:1052C000884200D804E1023D4144049BCB1A1800F7
:1052D00039000493FFF786FC019B82464343390063
:1052E00004980193FFF704FD01980B043104090CA5
:1052F000194388420DD953464144013B884500D9A2
:10530000E8E0884200D8E5E002235B429C46414445
:10531000E244019B2D04CE1A51462943059D4F4678
:105320002A000B04080C1B0C5A4345437B4378436B
:105330005B19170CFB189D4203D980256D02AC4602
:1053400060441D0C12041B04120C28189B18864282
:1053500000D293E000D18EE001231943A04BE31863
:10536000002B00DC99E04A0700D09EE05A46D201AB
:1053700006D55A469B4B1A4080239346DB00E31820
:10538000994A934268DD0123029A984C1A400023FF
:10539000944698460022C5E680224B4612031342EB
:1053A0000AD05B46134206D11A431203120BAC46D5
:1053B00088468E4CB6E64B461A431203120BBC4687
:1053C0008A4CAFE603005A46283B9A400023914698
:1053D000984657E65846FFF77BFD203040E603002D
:1053E0005246283B9A400021934677E6FFF770FD2E
:1053F00020305FE6884500D2C7E64B46DE075D08F1
:1054000043465B081E434346DB079A46C2E6002537
:10541000924500D333E7039E5946B446E244B24571
:10542000AD416D424544EB180139984507D2984289
:1054300000D97FE000D1BCE01D1A8B461FE79845DC
:10544000FAD1039D5545F2D943468B461D1A16E7FE
:105450009B46CAE61500E7E65A46C90852070A43C2
:105460005B0590465C0D5A46012302995202194091
:10547000120B8C4656E6002B00D16FE746444A1EBD
:10548000B04529D91100864200D065E7039A9342BE
:1054900000D061E762E7012149420120C21A382A9F
:1054A00021DD029B03409C4638E60F220A40042A75
:1054B00000D15BE70A00111D914292415242934490
:1054C00054E7474BE318002BE5DD01225242F2E797
:1054D0001D00FAE69A461CE7B04239D86ED011009A
:1054E0003AE702933AE71F2A3CDC20239B1A0C0080
:1054F0005846994098404B1E99415B46D440D34052
:10550000204308431A00430709D00F230340042B0C
:1055100005D00100081D88429B415B42D21813024E
:105520003AD50123029A01241A4000239446984652
:105530000022F7E5022149428C46039DE344AC4634
:10554000E244AA45AD416D424544ED182D1A96E658
:105550008A1E03994D008D42894149424144761883
:1055600003958FE71F204042C31A5846D8400300D6
:10557000202A28D040205D46821A954029434A1EA1
:1055800091411943072300220B4009D00F23002229
:105590000B400800042BBDD1010053075202120B2F
:1055A000C9081943012388460299002419408C46F2
:1055B000B8E55245BED88B46002560E6039D9D4266
:1055C000C6D3110062E70025D8E780225B461203AC
:1055D0001A43019B1203120B9C468846034CA1E51B
:1055E000FF030000FFFFFFFEFE070000FF070000B3
:1055F000F0B557464546DE464E46E0B50C039846A4
:105600004E00230B87B0070092469B46760DCD0FC8
:10561000002E6BD06D4B9E4235D080245B46420FEE
:105620002404DB0014431C43C3009946684BA34683
:105630009C46002300276644029343461C035A00FD
:10564000DB0F5046240B520D984600D176E05F4B9D
:105650009A426DD08023410F1B040B435C49E40048
:105660008C461C43C300002062444146B618694082
:10567000721C0191944607430F2F00D9B0E0554AA0
:10568000BF00D25997465B460343994600D087E056
:1056900000239B46023308270293CEE7424601923D
:1056A000022867D0032800D10EE2012800D062E171
:1056B000002300240022994601990140CDB2002127
:1056C00012030B0D120B1B051343434A2405134011
:1056D0001C436400ED0764082C434846210007B0D2
:1056E0003CBC90469946A246AB46F0BD0343994662
:1056F0004FD05B46002B00D189E15846FFF7E8FB0D
:1057000003000B3B1C2B00DD7AE11D22D31A3A006B
:1057100001005C46DA4008398C4013008F40234377
:105720009B46B94600232D4E0027361A029384E784
:10573000534623432AD10024022096E753462343AD
:1057400020D0002C00D157E12000FFF7C1FB03005F
:105750000B3B1C2B00DD49E11D21CB1A51460200F9
:10576000D9405346083A944093400C431B4A121ABE
:1057700000207AE70125019B144C1D4000230022E4
:1057800099469CE70024002201206EE7534603203F
:105790006BE700239B4601330427002602934CE766
:1057A000032381460C27029347E78022002300252C
:1057B00012039946054C82E75C464B4602986FE718
:1057C0005C464B46019502986AE7C046FF07000019
:1057D00001FCFFFFB86F0000FFFF0F800DFCFFFF13
:1057E0004A464946170C1A0C1B041B0C08041900E6
:1057F000000C41431500884619007D437943039509
:1058000089462900150045434D44029545462D0C17
:10581000AA46029D5544A94506D98A4680214902D7
:105820008946CA4451460391290C04914146090412
:105830002D04090C88462900250C24044144240C1D
:105840000591210041438846210079438A466843F7
:10585000414650448146080C48446F43824503D971
:105860008021490289464F44010C89463900494448
:10587000029141460F0404993F0C88460004C01968
:1058800080444146049159460F0C0904090C88468E
:1058900059438A4639005143894641464A43514655
:1058A000090C8B467B43D2185A44934203D9802378
:1058B0005B029B46D94451460904090C8A4641467D
:1058C00061437C43130C12044B445244A1468A4664
:1058D0003C0041466C434D4351464D440F0C7D19ED
:1058E000A94503D98021490288464444049F03996D
:1058F000B84641448B4683458041414288465146E3
:1059000008042F04000C3F185846029910188946C5
:10591000904292414F44BA46524299469346C244FD
:10592000D144CB448F42BF41C245894199459B41F7
:10593000934592417F4249422D0C52420F435B42B4
:1059400013437F19FF185B463C19DB0D059A64026F
:105950001C43430213435D1EAB415A46C00D034333
:1059600052021343E20156D501205A080340134363
:10597000E207134364085A48604400284DDD5A0783
:1059800009D00F221A40042A05D01A1D9A429B41C1
:105990005B42E4181300E20104D58020514AC000A4
:1059A00014406044504A904200DDE3E60125DB08E4
:1059B00062071A436402019B9146220B4405640D61
:1059C0001D407CE6802259461203114208D0144241
:1059D00006D122431203120B45469946434C6EE60C
:1059E0005B461A431203120B404C68E60300544610
:1059F000283B9C400023B9E6FFF76AFA2030A6E670
:105A00000300283B9F400023BB4699468AE6FFF7E8
:105A10005FFA203074E6B446ADE701252A1A382A29
:105A200006DD019B00241D4000230022994646E626
:105A30001F2A21DC20252000AD1A1E00AB40A84003
:105A4000D6405D1EAB4130431843D440430709D0D4
:105A50000F230340042B05D00300181D98429B41DF
:105A60005B42E418230221D50125019B01241D403E
:105A700000230022994622E61F2521006D42281AA4
:105A8000C1400800202A1DD05F35AA1A9440234344
:105A90005C1EA341072503431D400022002D09D0B1
:105AA0000F2200241A401800042AD6D103006507EB
:105AB0006402220BDB082B4301259946019B00243D
:105AC0001D40FCE50024E2E7802201251203224369
:105AD00001991203120B0D409946044CEFE5C046A4
